:100000000C945A000C949A000C949A000C949A0048
:100010000C949A000C949A000C949A000C949A00F8
:100020000C949A000C949A000C949A000C949A00E8
:100030000C949A000C949A000C949A000C949A00D8
:100040000C949A000C949A000C949A000C949A00C8
:100050000C949A000C949A000C949A000C949A00B8
:100060000C949A000C949A000C949A000C949A00A8
:100070000C949A000C949A000C949A000C949A0098
:100080000C949A000C949A000C949A000C949A0088
:100090000C949A000C949A000C949A000C949A0078
:1000A0000C949A000C949A000C949A000C949A0068
:1000B0000C949A0011241FBECFEFD8E0DEBFCDBF55
:0C00C0000E9466000C948500F894FFCFAD
:1000CC0084B1806284B985B1806285B987B117B873
:1000DC0088B1826088B93199FECF95B180E28927C9
:1000EC0085B9C0E0D0E003C00E9490002196CA30D0
:0E00FC00D105D4F395B180E2892785B9ECCF08
:10010A00EC010E949F000E949E00CE010E94A00066
:06011A00CE010E949C00D2
:100120002FEF82E597E0215080409040E1F700C03A
:04013000000008952E
:040134000C94000027
:040138000E946400BD
:02013C00089524
:02013E00089522
:02014000089520
:00000001FF
