:100000000C945D000C94D5000C94D5000C94D50094
:100010000C94D5000C94D5000C94D5000C94D5000C
:100020000C94D5000C94D5000C94D5000C94D500FC
:100030000C94D5000C94D5000C94D5000C94D500EC
:100040000C94D5000C94D5000C94D5000C94D500DC
:100050000C94D5000C94D5000C94D5000C94D500CC
:100060000C94D5000C94D5000C94D5000C94D500BC
:100070000C94D5000C94D5000C94D5000C94D500AC
:100080000C94D5000C94D5000C94D5000C94D5009C
:100090000C94D5000C94D5000C94D5000C94D5008C
:1000A0000C94D5000C94D5000C94D5000C94D5007C
:1000B0000C94870001000102800011241FBECFEFC5
:1000C000D8E0DEBFCDBFE4EBF0E040E017C0B59173
:1000D000A59135912591059107FD0CC095918591CC
:1000E000EF01F92FE82F05900D92A217B307D9F76A
:1000F000FE0104C01D92A217B307E1F7E93BF40724
:0E01000031F70E94B5000C94CA00F894FFCFAE
:10010E001F920F920FB60F9211242F938F939F93DE
:10011E0088E39FEF9093A5008093A4008091000147
:10012E0090910101019690930101809300018091BD
:10013E000001909101018031974240F095B188E025
:10014E00892785B910920101109200019F918F911C
:0C015E002F910F900FBE0F901F9018956E
:10016A0084B1886084B91092A00082E08093A100D3
:10017A0088E39FEF9093A5008093A400E2E7F0E064
:0A018A008081816080837894FFCFAC
:10019400EC010E94DA000E94D900CE010E94DB002B
:0601A400CE010E94D7000D
:0401AA000C940000B1
:0401AE000E94850026
:0201B2000895AE
:0201B4000895AC
:0201B6000895AA
:00000001FF
