:100000000C945D000C94D3000C94D3000C94D3009A
:100010000C94D3000C94D3000C94D3000C94D30014
:100020000C94D3000C94D3000C94D3000C94D30004
:100030000C94D3000C94D3000C94D3000C94D300F4
:100040000C94D3000C94D3000C94D3000C94D300E4
:100050000C94D3000C94D3000C94D3000C94D300D4
:100060000C94D3000C94D3000C94D3000C94D300C4
:100070000C94D3000C94D3000C94D3000C94D300B4
:100080000C94D3000C9487000C94D3000C94D300F0
:100090000C94D3000C94D3000C94D3000C94D30094
:1000A0000C94D3000C94D3000C94D3000C94D30084
:1000B0000C94D30001000102800011241FBECFEF79
:1000C000D8E0DEBFCDBFE4EBF0E040E017C0B59173
:1000D000A59135912591059107FD0CC095918591CC
:1000E000EF01F92FE82F05900D92A217B307D9F76A
:1000F000FE0104C01D92A217B307E1F7E93BF40724
:0E01000031F70E94AF000C94C800F894FFCFB6
:10010E001F920F920FB60F9211242F938F939F93DE
:10011E0080910001909101010196909301018093CD
:10012E000001809100019091010180349F4140F0C7
:10013E0095B180E1892785B91092010110920001D5
:10014E009F918F912F910F900FBE0F901F9018952A
:10015E0084B1806184B910929000E1E9F0E088E00A
:10016E00808383EF91E09093990080939800808133
:10017E0082608083E1E7F0E0808182608083789402
:02018E00FFCFA1
:10019000EC010E94D8000E94D700CE010E94D90035
:0601A000CE010E94D50013
:0401A6000C940000B5
:0401AA000E9485002A
:0201AE000895B2
:0201B0000895B0
:0201B2000895AE
:00000001FF
