:100000000C945A000C9485010C9485010C94850184
:100010000C9485010C9485010C9485010C94850148
:100020000C9485010C9485010C9485010C94850138
:100030000C9485010C9485010C9485010C94850128
:100040000C9485010C9485010C9485010C94850118
:100050000C9485010C9485010C9485010C94850108
:100060000C9485010C9485010C9485010C948501F8
:100070000C9485010C9485010C9485010C948501E8
:100080000C9485010C9485010C9485010C948501D8
:100090000C9485010C9485010C9485010C948501C8
:1000A0000C9485010C9485010C9485010C948501B8
:1000B0000C94850111241FBECFEFD8E0DEBFCDBF69
:0C00C0000E94C3000C946901F894FFCF6B
:1000CC001F93CF93DF9300D000D000D0CDB7DEB715
:1000DC00FC01892BA1F580E30E947E0144C09F01A5
:1000EC00ADECBCEC0E944E01969587959695879544
:1000FC00969587959C01220F331F880F991F880FA7
:10010C00991F880F991F820F931F9F01281B390B72
:10011C00C901A1E0B0E0AC0FBD1FA40FB11D805D03
:10012C008C939F01ADECBCEC0E944E01FC01F6954A
:10013C00E795F695E795F695E7954F5F01C040E09A
:10014C00309769F0463058F20AC0E1E0F0E0EC0F6D
:10015C00FD1FE10FF11D80810E947E01412F1FEFD9
:10016C00140F4111F2CF26960FB6F894DEBF0FBED6
:0A017C00CDBFDF91CF911F910895D0
:100186000E945D010E942E010E947401C0E025C0FC
:100196002C2F30E0AAEFB0E00E944E0124EB30E0B5
:1001A60040E050E00E94F30026503F4F3093890014
:1001B600209388000E943E010E9415018C018C2F1D
:1001C60090E00E9466008CE20E947E01C8010E94B7
:1001D60066008AE00E947E01CE5FC53BC8F2D6CF9C
:1001E600A1E21A2EAA1BBB1BFD010DC0AA1FBB1F35
:1001F600EE1FFF1FA217B307E407F50720F0A21BA7
:10020600B30BE40BF50B661F771F881F991F1A9413
:1002160069F760957095809590959B01AC01BD013D
:04022600CF01089567
:10022A0088B1826088B985E38A95F1F7000088B1C0
:10023A008D7F88B94E9BFECF209184003091850036
:10024A004E99FECF8091840090918500821B930B7A
:02025A00089505
:10025C0084B1826084B982E8809380008BE18093C2
:10026C00810087E893E1909387008093860008953E
:10027C0020E00BC080E090E0FC013197F1F7FC012D
:10028C003197F1F70197F1F72F5F223398F3089527
:10029C00A29FB001B39FC001A39F700D811D1124BB
:0E02AC00911DB29F700D811D1124911D0895AA
:1002BA001092C50087E68093C40088E08093C1004D
:0802CA0086E08093C200089554
:1002D200EC010E948A010E948901CE010E948B01D9
:0602E200CE010E9487011D
:1002E80087B1826087B98AB18F7B8AB98BB18F7BDE
:0402F8008BB9089521
:0E02FC009091C00095FFFCCF8093C60008953E
:04030A000C9400004F
:04030E000E946400E5
:0203120008954C
:0203140008954A
:02031600089548
:00000001FF
