:100000000C945D000C9440120C9440120C9440121D
:100010000C9440120C9440120C9440120C94401218
:100020000C9440120C9440120C9440120C94401208
:100030000C9440120C9440120C9440120C944012F8
:100040000C9440120C9440120C9440120C944012E8
:100050000C9440120C9440120C9440120C944012D8
:100060000C9440120C9440120C9440120C944012C8
:100070000C9440120C9440120C9440120C944012B8
:100080000C9440120C9440120C9440120C944012A8
:100090000C9440120C9440120C9440120C94401298
:1000A0000C9440120C9440120C9440120C94401288
:1000B0000C94401201000102800011241FBECFEFFA
:1000C000D8E0DEBFCDBFE4EBF0E040E017C0B59173
:1000D000A59135912591059107FD0CC095918591CC
:1000E000EF01F92FE82F05900D92A217B307D9F76A
:1000F000FE0104C01D92A217B307E1F7E93BF40724
:0E01000031F70E9429080C94A311F894FFCF48
:10010E00424D4931363020496E6974004143433ABD
:10011E0020252E32662C20252E32662C20252E32BE
:10012E00662C204759523A20252E32662C20252E39
:0B013E0032662C20252E3266000A00DD
:1001490068076C094C836A9074A07AC0008068883B
:0601590000846C820081AD
:10015F00494E4600696E66004E414E006E616E005C
:06016F00286E696C2900F6
:10017600A3EAB0E0E1ECF0E00C9487104C015901E1
:10018600C756DF4F488359836A83C959D040212C0B
:10019600312C6E012BE8C20ED11C85E2782E260189
:1001A60030E8632ECE018D569F4FC456DF4F99839C
:1001B6008883CC59D0409C0140E8CF55DF4F288337
:1001C60039834A83C15AD040C756DF4F4881C9593F
:1001D600D040C656DF4F5881CA59D040C556DF4F6A
:1001E6006881CB59D040FA01849167FD80818823CC
:1001F60009F4C9C3CF57DF4F19821882C158D040BE
:100206008FEF9FEFCD57DF4F99838883C358D04038
:10021600CB57DF4F19821882C558D040A1E0B0E015
:10022600AC0FBD1FC957DF4FB983A883C758D0404D
:10023600E0E8F0E0C757DF4FF983E883C958D040BC
:10024600CA01A62FE12CF12CFC012491A7FD2081E7
:1002560021111BC0E114F10401F19701C4010E94B0
:10026600A00FC756DF4F88819981AA81C959D0400E
:100276008E0D9F1DA11DF7FCAA95C756DF4F8883DB
:100286009983AA83C959D04008C00196A11D253279
:1002960009F3FFEFEF1AFF0AD7CFC756DF4F888162
:1002A6009981AA81C959D040FC012491A7FD2081DA
:1002B600253209F056C39C014A2F2F5F3F4F4F4FFF
:1002C600C256DF4F288339834A83CE59D040C7565A
:1002D600DF4F288339834A83C959D040C756DF4F39
:1002E60088819981AA81C959D040FC012491A7FD32
:1002F60020812B3241F4CF57DF4F28813981C158F5
:10030600D04024600BC02C32CCF02D3259F5CF579B
:10031600DF4F28813981C158D0402160CF57DF4F48
:1003260039832883C158D0400196A11DC756DF4F97
:1003360088839983AA83C959D040D0CF203241F40B
:10034600CF57DF4F28813981C158D0402860E6CF8A
:10035600233291F4CF57DF4F28813981C158D040DD
:100366002061DCCF203341F4CF57DF4F288139811C
:10037600C158D0402260D2CF2A3299F50196A11DEC
:10038600C756DF4F88839983AA83C959D040D501C0
:10039600ED91FC911197CF0102968D939C938081EC
:1003A6009181CB57DF4F99838883C558D04097FFFB
:1003B6003EC0CF57DF4F28813981C158D040B1E0C8
:1003C6002B27CF57DF4F39832883C158D0409195CB
:1003D60081959109CB57DF4F99838883C558D040C3
:1003E60026C0BC018A2F0E94250ECB57DF4F99836A
:1003F6008883C558D040C756DF4F288139814A8146
:10040600C959D040F901849147FD8081082E000C1E
:10041600990BC0970A9758F42F5F3F4F4F4FC75617
:10042600DF4F288339834A83C959D040E4CFCF5759
:10043600DF4F88819981C158D04080FF07C08D7FEA
:10044600CF57DF4F99838883C158D040C756DF4FB7
:1004560088819981AA81C959D040FC012491A7FDC0
:1004660020812E3209F058C0CD57DF4F19821882ED
:10047600C358D0409C014A2F2F5F3F4F4F4FC7565E
:10048600DF4F288339834A83C959D040F9015491F3
:1004960047FD50815A32D1F40296A11DC756DF4F4F
:1004A60088839983AA83C959D040D501ED91FC91DF
:1004B6001197CF0102968D939C9380819181CD57A0
:1004C600DF4F99838883C358D04026C0842FB90153
:1004D6000E94250ECD57DF4F99838883C358D0409D
:1004E600C756DF4F288139814A81C959D040F90161
:1004F600849147FD8081082E000C990BC0970A97BE
:1005060058F42F5F3F4F4F4FC756DF4F288339832D
:100516004A83C959D040E4CFCE0187569F4F0E94E7
:100526008D0D182FC756DF4F2881C959D040C656A2
:10053600DF4F8881CA59D040C556DF4F9881CB59C5
:10054600D040E22FF82F849197FD8081082E000C71
:10055600990B0E94E6118936910509F45AC0B4F444
:100566008336910509F466C144F48532910509F490
:10057600A1C18136910529F1B3C18436910509F4EB
:1005860048C0883691050CF42DC1AAC18037910563
:1005960009F4CBC04CF48E36910509F419C18F3697
:1005A600910509F47CC09CC18537910509F454C0B6
:1005B6008837910509F496C08337910509F090C1F3
:1005C60058C1612F70E0A501C6010E944910892B10
:1005D60009F4B7C1C756DF4F88819981AA81C959E5
:1005E600D0409C014A2F2F5F3F4F4F4FC756DF4FDA
:1005F600288339834A83C959D040FC012491A7FD39
:100606002081A601BE016F577F4FC4010E943A1296
:1006160095C1612F70E0950141E050E0C6010E944E
:100626001809892B09F48DC1C756DF4F8881998136
:10063600AA81C959D0400196A11DC756DF4F8883AC
:100646009983AA83C959D040A601BE016F577F4F2F
:10065600C4010E94371272C1612F70E0950140E01B
:1006660050E0C6010E941809892B09F46AC1C756D1
:10067600DF4F88819981AA81C959D0400196A11D71
:10068600C756DF4F88839983AA83C959D040A601EC
:10069600BE016F577F4FC4010E9437124FC1612FB1
:1006A60070E0950140E050E0C6010E941809892BD0
:1006B60009F447C1C756DF4F88819981AA81C95974
:1006C600D0400196A11DC756DF4F88839983AA8320
:1006D600C959D040A601BE016F577F4FC4010E9481
:1006E60037122CC1612F70E0950140E050E0C60141
:1006F6000E941809892B09F424C1C756DF4F888147
:100706009981AA81C959D0409C014A2F2F5F3F4F3A
:100716004F4FC756DF4F288339834A83C959D04084
:10072600FC012491A7FD20814BC0950140E050E0DB
:1007360060EF70E0C6010E941809892B09F401C117
:10074600C756DF4F88819981AA81C959D040019641
:10075600A11DC756DF4F88839983AA83C959D04004
:1007660086E02FE631E040E0F901DE01AD56BF4FED
:10077600742F0E947211D6012C9111963C911197FB
:1007860012964C91129713965C91139714966C914E
:10079600149715967C91159716968C911697179621
:1007A6009C91A0E00E948B1151F400E010E0CF551F
:1007B600DF4F288139814A81C15AD040B9C028E724
:1007C600A601BE016F577F4FC4010E943A12B6C000
:1007D600612F70E09501A1014E0D5F1DC6010E94BB
:1007E600FE0BAFC0612F70E0A501C6010E94491043
:1007F600892B09F4A6C0C756DF4F88819981AA8143
:10080600C959D0409C014A2F2F5F3F4F4F4FC756C3
:10081600DF4F288339834A83C959D040FC0124918C
:10082600A7FD2081A601BE016F577F4FC4010E941C
:10083600CC0484C0103809F084C0C756DF4F8881C5
:100846009981AA81C959D0400196A11DC756DF4F8B
:1008560088839983AA83C959D040D501ED91FC912B
:100866001197CF0102968D939C938081F601808328
:100876005BC0103809F065C0C756DF4F8881998183
:10088600AA81C959D0400196A11DC756DF4F88835A
:100896009983AA83C959D040D501ED91FC9111974E
:1008A600CF0103968D939C9320813181428100E094
:1008B60010E03EC0103809F044C0C756DF4F8881AB
:1008C6009981AA81C959D0400196A11DC756DF4F0B
:1008D60088839983AA83C959D040F601708224C0BF
:1008E600D6017C92C256DF4F288139814A81CE5982
:1008F600D040C756DF4F288339834A83C959D04031
:10090600CF57DF4F19821882C158D040CB57DF4FDF
:1009160019821882C558D0408FEF9FEFCD57DF4F11
:1009260099838883C358D04001E010E0462D920198
:10093600BE016F577F4FC4010E943D128E0D9F1D51
:1009460011C0C756DF4F88819981AA81C959D04005
:100956000196A11DC756DF4F88839983AA83C9597B
:10096600D040C7017101E80EF91EE214F3044CF4FD
:100976008FE490E090930101809300018FEF9FEF49
:1009860003C0170121CCC101CD55DF4FE2E10C9424
:02099600A310AC
:10099800A6E2B0E0E2EDF4E00C9487109F8F8E8F12
:1009A800798F688F122FFB010190F081E02DFA8773
:1009B800E987FB01C280D380248135813C8B2B8B56
:1009C8008085918599A388A30680F781E02DFA8315
:1009D800E983FA0180809180A280B38020E030E032
:1009E800A901C501B4010E941E1287FF06C0B7FA0B
:1009F800B094B7F8B0948DE204C0F985F2FF0CC347
:100A08008BE2E981FA8180832B893C892150310965
:100A180038872F8341E050E05A8B498B06C08B8979
:100A28009C8998878F831A8A198AD501C401BF7750
:100A38000097E0E8AE07EFE7BE07D9F4212F110FC2
:100A4800330B2154310989819A8149895A89840F44
:100A5800951F2A31310520F44FE551E060E003C0CD
:100A680043E651E060E00E94641163E671E080E0D3
:100A78001EC00197A048BF4730F1212F110F330B3B
:100A88002154310989819A8149895A89840F951F8E
:100A98002A31310520F447E651E060E003C04BE617
:100AA80051E060E00E9464116BE671E080E00E9412
:100AB800EC10E981FA81AF0160E8E984FA840B89D6
:100AC8001C899C01A1C220E030E0A901C501B40144
:100AD8000E941E121B821C82882309F467C0F0E85A
:100AE800FD832FE32E83212C312C20E030E040E2DF
:100AF80051E46B817C818D819E810E943012F62E9B
:100B0800072F8D879B87A50194010E942312181631
:100B180054F03FEF231A330AFB820C834D854D8333
:100B28005B855E83E2CF1C861B862B813C814D81D1
:100B38005E81C501B4010E941E1287FF3DC084ED8D
:100B480028168EEF380604F5EB85FC85EF2BE1F4CB
:100B580020E030E040E85AE5C501B4010E943012B7
:100B68004B015C0120E030E040E85AE56B817C8174
:100B78008D819E810E9430126B837C838D839E833E
:100B880021E030E03C872B8720E030E040E251E470
:100B98006B817C818D819E810E942C126B837C836A
:100BA8008D839E8331E0231A3108BFCF40E84D83FF
:100BB8005FE35E83212C312C812F110F990B9BA3AE
:100BC8008AA30E94E6118B8FD7FC03C0DEA2CDA2B8
:100BD80004C0E6E0F0E0FEA3EDA3FB8DF73641F498
:100BE800CD2809F01EC221E030E03EA32DA319C292
:100BF8008B8D8D8B04C037FE25C296E69D8BEDA1AB
:100C0800FEA13196FEA3EDA3FD89F63699F437FED1
:100C180008C01B821C8220E82D833FE33E83212CE1
:100C2800312C4B8D473631F08DA19EA1820D931D3D
:100C38009EA38DA39B819B87EC81ED87FD81FE8B15
:100C48002E812A8F750164011D8E1C8E8C8D9D8DC1
:100C5800EDA1FEA18E179F07C1F12B853D854E8919
:100C68005A8DC701B6010E942C120E946F0A2B01EF
:100C78003C010E9411126CA38701760117FB1095A5
:100C880017F910952B853D854E895A8DC301B20100
:100C98000E94D1096B017C01F7FAF094F7F8F094FF
:100CA80020E030E040E251E46B857D858E899A8DA5
:100CB8000E942C126B877D878E8B9A8F4C8D5D8D51
:100CC8004F5F5F4F5D8F4C8FC1CF20E030E040EA2F
:100CD80050E46B857D858E899A8D0E9430122B0198
:100CE8003C019B01AC01C701B6010E941E1287FDA1
:100CF8000BC0A3019201C701B6010E941E12811107
:100D080006C0FCA1F0FD03C0412C512C3201A30107
:100D18009201C501B4010E940B124B015C012D899F
:100D2800253611F0310102C0612C712C23014DA12F
:100D38005EA1441A550AC988DA8800E010E01C86CA
:100D48001B8689859A85807199279F8B8E8B641461
:100D5800750431F48B859C85892B09F49AC0A6C04B
:100D6800DD8ECC8EE88DF98D808591850597C81626
:100D7800D90680F72B813C814D815E81C501B40184
:100D88000E942C120E946F0A6D877E878F87988B2E
:100D98000E941112CB01EE89FF89EF2B69F4892B90
:100DA80059F4FB8DF73641F477FE06C098012F5FA2
:100DB8003F4F3D8F2C8F43C04B855C85452BB1F44D
:100DC80077FE14C05FEFC51AD50AE981FA818C8DC8
:100DD8009D8DE80FF91F9EE29083EF81F88531978A
:100DE800F887EF8321E030E03C872B87E981FA819F
:100DF800EC0DFD1D1D8F0C8F8C8D9D8D892B49F061
:100E080030E331934C8D5D8D415051095D8F4C8F8E
:100E1800F3CFC8018C0D9D1D2F813885201B310B08
:100E28006C01EFEFCE1ADE0AE981FA81E80FF91FAB
:100E3800605D6083A9014150510958874F8385013E
:100E4800740117FB109517F910952B813C814D8182
:100E58005E816D857E858F8598890E94D1094B01B9
:100E68005C01B7FAB094B7F8B09420E030E040E203
:100E780051E46B817C818D819E810E942C126B8351
:100E88007C838D839E8351E0651A71080C8D1D8DBE
:100E98005ECFF985F4FF0AC0E981FA81EC0DFD1DEA
:100EA8008EE2808396012F5F3F4F690149815A8105
:100EB8004C0D5D1D5C874B87FA011082FD89F53664
:100EC80009F061C0E981FA8128A139A1E20FF31F75
:100ED8003197108237FE06C031942194310801E021
:100EE80010E002C000E010E0E8A1F9A131974981C3
:100EF8005A81E40FF51F22E030E08AE0E82EF12C59
:100F0800CF0149815A81841B950B2114310479F052
:100F1800C101B7010E942B11805D82931B012150F2
:100F280031098F819885019798878F83E9CF1216A9
:100F3800130674F3FC013197E40FF51F012B11F42C
:100F48002BE201C02DE220830297E981FA81E80FA4
:100F5800F91F2AA13BA1215431092A31310510F08A
:100F680025E601C025E420832F81388522503109E8
:100F780038872F83C816D90634F4AF0160E88B850B
:100F88009C850E94641149815A813A0180E8882E23
:100F9800998591FF2EC090FD2CC0EF81F8851E1613
:100FA8001F063CF5882DB3010E94EC1029813A8177
:100FB800820F931F9C0149815A81241B350BE989B3
:100FC800FA892E173F074CF0FC012081EF81F88544
:100FD800E80FF91F20830197EDCF4F81588560E313
:100FE80070E089819A818E0F9F1F0E94D5111C8AFB
:100FF8001B8A882DB3010E94EC10E984FA840B89BE
:101008001C899C01682DA3018E8D9F8D0E94080B61
:10101800A696E2E10C94A310598553FF00CD80E217
:10102800F0CC2CEF22162FEF32064CF04DA15EA12A
:10103800241635060CF4DFCD55E65D8BFBCD35E681
:0A1048003D8BF8CD46E64D8BF5CD4B
:10105200CF93DF93CDB7DEB7C055D1090FB6F89461
:10106200DEBF0FBECDBF0E94CC110E947F112FEFB9
:1010720083ED90E3215080409040E1F700C00000F2
:101082000E94660F6EE071E080E00E94D610AE0111
:101092004B5F5F4FBE016D5F7F4FCE0101960E9495
:1010A2006D0EAE01455F5F4FBE01675F7F4FCE01A0
:1010B20007960E94AE0E69817A81072E000C880B7A
:1010C200990B0E94F10E20E030E040E858E30E94C4
:1010D20030122E966FAF2E972F967FAF2F97609676
:1010E2008FAF609761969FAF61976B817C81072E6E
:1010F200000C880B990B0E94F10E20E030E040E8D2
:1011020058E30E943012162F072FF82EE92E6D8118
:101112007E81072E000C880B990B0E94F10E20E0B5
:1011220030E040E858E30E943012D62EC72EB82E87
:10113200A92E6F817885072E000C880B990B0E94CF
:10114200F10E23E333E343E853E40E942C12962E7C
:10115200872E782E692E69857A85072E000C880BDA
:10116200990B0E94F10E23E333E343E853E40E9418
:101172002C12562E472E382E292E6B857C85072E53
:10118200000C880B990B0E94F10E23E333E343E832
:1011920053E40E942C129F938F937F936F932F920D
:1011A2003F924F925F926F927F928F929F92AF92F5
:1011B200BF92CF92DF92EF92FF920F931F936196AD
:1011C2002FAD61972F9360968FAD60978F932F9677
:1011D2009FAD2F979F932E962FAD2E972F938AE137
:1011E20091E0A0E0AF939F938F931F9280E48F933F
:1011F2008E01035F1F4F1F930F930E940211B801CC
:1012020080E80E94D61067E471E080E00E94D61068
:101212008FEF91EE24E0815090402040E1F700C032
:0E12220000000FB6F894DEBF0FBECDBF30CF78
:101230000F931F93CF93DF93FC01D9016838710599
:1012400031F194F461387105B1F12CF46038710515
:1012500009F478C09FC06238710509F459C0643838
:10126000710509F46FC096C0603A710509F448C071
:101270002CF46039710509F44BC08CC0603C7105D9
:1012800009F476C0603F710509F472C083C0CD9146
:10129000DC911197CE0102968D939C93452B39F0EA
:1012A0009881892F880F880B908381835BC0888108
:1012B0008083118268C0CD91DC911197CE01049694
:1012C0008D939C93452B99F088819981AA81BB814C
:1012D000AC01BD01770F440B542FBA018083918379
:1012E000A283B383448345834683478328C0088110
:1012F00019812A813B81008311832283338345C076
:10130000CD91DC911197CE0102968D939C9323C0D1
:10131000CD91DC911197CE0108968D939C937881A5
:1013200069815A814B813C812D819E818F8170839F
:10133000618352834383348325839683878381E04B
:1013400090E02AC0CD91DC911197CE0102968D9349
:101350009C93452BA1F099812881892F880F880BB8
:101360002083918382838383848385838683E6CFEE
:10137000CD91DC911197CE0102968D939C930881BB
:1013800019810083118312821382148215821682BE
:101390001782D5CF80E090E0DF91CF911F910F9120
:0213A0000895AE
:1013A200A5E1B0E0E7EDF9E00C94871047015801A0
:1013B2000E9430122B013C01A80197010E940B12DE
:1013C200162FC72ED82EF92E862F9C2DAD2DBF2D70
:1013D20089839A83AB83BC83AA81FB81EC81ED80F4
:1013E2003E802F8008850D8B5E2F5F71212F3A2F53
:1013F2004F2F60E070E080E090E02115310541055B
:1014020000E15007610571058105910509F05EC093
:101412005E2F6E2D732D822D9D8904E30E946B1029
:101422002D873E874F87588B698B7A8B8B8B9C8B52
:101432008D859E8597708F3F974009F447C0A30121
:101442009201612F7C2D8D2D9F2D0E940A129B01EE
:10145200AC01C501B4010E941E128823B9F149866C
:101462005A866B867C8629853A854B855C85C501C3
:10147200B4010E940B12B62E872E982EA92E262F6B
:10148200372F482F592F612F7C2D8D2D9F2D0E9494
:101492001E12811118C02B2D8B2D982DA92DBA2D1E
:1014A20089839A83AB83BC833A814B815C816E2DA5
:1014B200732D822D9D89A1E00E949711122FC32EB8
:1014C200D42EF52E03C01B2D6401FA2C612F7C2D26
:0C14D2008D2D9F2D6596E2E10C94A31077
:1014DE004F925F926F927F928F929F92AF92BF9236
:1014EE00CF92DF92EF92FF92CF93DF93CDB7DEB71D
:1014FE0028970FB6F894DEBF0FBECDBF6B017C01EF
:10150E00DC01CB0147E1B695A795979587954A954E
:10151E00D1F799278F579109873191059CF597FD42
:10152E0036C088248A94982C3FE7A32EB12C04C091
:10153E00B594A794979487948A95D2F7D501C40150
:10154E008C219D21AE21BF21892B8A2B8B2BD1F093
:10155E0020E030E040E85BE7C701B6010E940B12C5
:10156E006D837E838F839887F7FE04C0C80CD91CC9
:10157E00EA1CFB1C80949094A094B094C820D920AF
:10158E00EA20FB205C2D4D2D3E2D2F2D21C020E07D
:10159E0030E040E85BE7C701B6010E940B12698399
:1015AE007A838B839C83F7FE0FC0D701C601880F09
:1015BE00991FAA1FBB1F892B8A2B8B2B19F350E067
:1015CE0040E030E82FEB04C050E040E030E020E097
:1015DE00652F742F832F922F28960FB6F894DEBFA7
:1015EE000FBECDBFDF91CF91FF90EF90DF90CF90E8
:1015FE00BF90AF909F908F907F906F905F904F9025
:02160E0008953D
:101610002F923F924F926F927F928F92AF92BF9292
:10162000CF92DF92EF92FF920F931F93CF93DF93AE
:10163000CDB7DEB766970FB6F894DEBF0FBECDBF4D
:101640005C013A01862E6901C701817099279C8B44
:101650008B8BE0FC1DC020173107D4F47801EC1807
:10166000FD08FE8AED8AA70191E1E916F10410F068
:1016700040E150E060E270E0CE0101969A8B898BE8
:101680000E94D51189899A891C0120E8422E0BC03D
:101690009601682DA301C5010E94A00FC016D106B6
:1016A000ECF2C60125C090E1E916F10458F020E102
:1016B00030E0642DA101C5010E94A00F80E1E81A6D
:1016C000F108F1CF2D893E892F70332789899A89B6
:1016D000AC0160E8C5010E94A00F8B899C89892B11
:1016E00031F49601682DA301C5010E94A00FC80125
:1016F00066960FB6F894DEBF0FBECDBFDF91CF91D7
:101700001F910F91FF90EF90DF90CF90BF90AF901F
:0E1710008F907F906F904F903F902F90089594
:10171E0010C00E94FC1158F00E94F51140F029F4FF
:10172E005F3F29F00C94181251110C9404120C9472
:10173E0034120E94271068F39923B1F3552391F3C5
:10174E00951B550BBB27AA2762177307840738F022
:10175E009F5F5F4F220F331F441FAA1FA9F335D07F
:10176E000E2E3AF0E0E832D091505040E695001C33
:10177E00CAF72BD0FE2F29D0660F771F881FBB1FED
:10178E00261737074807AB07B0E809F0BB0B802DCB
:10179E00BF01FF2793585F4F3AF09E3F510578F0F7
:1017AE000C9418120C9404125F3FE4F3983ED4F399
:1017BE00869577956795B795F7959F5FC9F7880FCB
:1017CE00911D9695879597F90895E1E0660F771F1D
:1017DE00881FBB1F621773078407BA0720F0621BAE
:0E17EE00730B840BBA0BEE1F88F7E09508957D
:1017FC00CF93DF93DC01F90164387105D9F164F4FE
:10180C006138710521F16238710509F440C0603806
:10181C00710509F054C02EC060397105C1F184F412
:10182C006838710509F04BC0C081D181CE01029698
:10183C0091838083E881F981ED93FC9340833CC0D4
:10184C00603A7105B9F0603C7105A1F038C0C081F7
:10185C00D181CE01029691838083E881F981ED9349
:10186C00FC93052E000C660B770B4083518362832F
:10187C00738322C0C081D181CE0102969183808373
:10188C00E881F981ED93FC935183408315C0C081AD
:10189C00D181CE01029691838083E881F981ED9309
:1018AC00FC9351834083852F880F880B828383831D
:1018BC00848385838683878381E090E002C080E007
:0818CC0090E0DF91CF91089537
:1018D4000FC00E94F51138F00E94FC1120F09523EE
:1018E40011F00C9418120C94341211240C94041258
:1018F4000E94271070F3959FC1F3950F50E0551F78
:10190400629FF001729FBB27F00DB11D639FAA2750
:10191400F00DB11DAA1F649F6627B00DA11D661F9F
:10192400829F2227B00DA11D621F739FB00DA11DC0
:10193400621F839FA00D611D221F749F3327A00D7A
:10194400611D231F849F600D211D822F762F6A2F16
:1019540011249F5750409AF0F1F088234AF0EE0F7B
:10196400FF1FBB1F661F771F881F91505040A9F7A8
:101974009E3F510580F00C9418120C9404125F3FA2
:10198400E4F3983ED4F3869577956795B795F795E4
:10199400E7959F5FC1F7FE2B880F911D969587955C
:0419A40097F9089512
:1019A80011C00E94F51138F00E94FC1120F039F4A2
:1019B8009F3F19F426F40C9434120EF4E095E7FBDB
:1019C8000C941812E92F0E94271058F3BA176207CF
:1019D80073078407950720F079F4A6F50C94031291
:1019E8000EF4E0950B2EBA2FA02D0B01B901900132
:1019F8000C01CA01A0011124FF27591B99F0593F76
:101A080050F4503E68F11A16F040A22F232F342FBD
:101A18004427585FF3CF469537952795A795F0400B
:101A28005395C9F77EF41F16BA0B620B730B840B20
:101A3800BAF09150A1F0FF0FBB1F661F771F881FD8
:101A4800C2F70EC0BA0F621F731F841F48F4879530
:101A580077956795B795F7959E3F08F0B0CF939522
:0E1A6800880F08F09927EE0F9795879508953F
:101A76006F927F928F92EF92FF920F931F93CF9365
:101A8600DF93CDB7DEB761970FB6F894DEBF0FBE12
:101A9600CDBFFE01319651E1DF011D925A95E9F75E
:101AA600A2E0B1E0BA83A9839C838B8377FF09C048
:101AB6008FE490E090930101809300018FEF9FEFF8
:101AC60019C03901842E7C01615071097F836E83B0
:101AD6009801682DA301CF010E94BE104885598543
:101AE6002E813F814217530708F49A01F701E20F4E
:101AF600F31F108261960FB6F894DEBF0FBECDBFFE
:101B0600DF91CF911F910F91FF90EF908F907F9073
:041B16006F9008952F
:101B1A00CF92DF92EF92DC0190E0292F30E0220F82
:101B2A00331F6901032E000CEE086E2DA601475BD8
:101B3A005E4F6F4F6A01E62EFA018491E7FC8081BD
:101B4A0081110DC02F5F3F4F032E000C440B275B02
:101B5A003E4F4F4FF901849147FD808124C0CD90BB
:101B6A00DD90EC901297F6014491E7FC40818413D2
:101B7A0015C02F5F3F4F032E000C440B275B3E4FCF
:101B8A004F4FF901949147FD90815FEFC51AD50A2D
:101B9A00E50ACD92DD92EC92129701C09F5F9B30CD
:0E1BAA0008F4BBCF892FEF90DF90CF90089505
:101BB8000F931F93CF93DF93DB012D913C911197E6
:101BC80030FF25C017964D915C91189715962D9169
:101BD8003C9116974217530778F41296ED91FC91B1
:101BE8001397808312962D913C9113972F5F3F4F47
:101BF80013963C932E93129717962D913C91189714
:101C08002F5F3F4F18963C932E93179715C01D963C
:101C1800ED91FC911E97309719F48FEF9FEF0CC050
:101C28008B01EC010995892BC1F7F8018781908513
:101C3800019690878783CE01DF91CF911F910F91F5
:021C48000895FD
:101C4A00CF939B01482FF901849147FD808180320F
:101C5A00C9F1682F082E000C770B6950710965309D
:101C6A00710580F18B3249F5A0E0B0E02F5F3F4F5C
:101C7A004F4F02C0A0E0B0E080E090E0CAE0F90176
:101C8A00649147FD6081062E000C770B6053710941
:101C9A006A30710560F4C89FF001C99FF00D1124E4
:101CAA002F5F3F4F4F4FCF01861B970BE8CFAB2BD0
:101CBA0069F491958195910909C08D32D9F6A1E00F
:101CCA00B0E0D4CF2F5F3F4F4F4FBDCFCF91089594
:101CDA00CF92DF92EF92FF920F931F93CF93DF93EE
:101CEA0000D000D000D0CDB7DEB76C017B018A01ED
:101CFA0046E0BE016F5F7F4F82E10E942C0F8A810E
:101D0A0090E0982F88272981822BF601918380837E
:101D1A008C8190E0982F88272B81822BF701918361
:101D2A0080838E8190E0982F88272D81822BF8015D
:101D3A009183808326960FB6F894DEBF0FBECDBF7F
:101D4A00DF91CF911F910F91FF90EF90DF90CF908D
:021D5A000895EA
:101D5C00CF92DF92EF92FF920F931F93CF93DF936B
:101D6C0000D000D000D0CDB7DEB76C017B018A016A
:101D7C0046E0BE016F5F7F4F8CE00E942C0F8A8182
:101D8C0090E0982F88272981822BF60191838083FC
:101D9C008C8190E0982F88272B81822BF7019183DF
:101DAC0080838E8190E0982F88272D81822BF801DB
:101DBC009183808326960FB6F894DEBF0FBECDBFFD
:101DCC00DF91CF911F910F91FF90EF90DF90CF900B
:021DDC00089568
:101DDE00E89409C097FB3EF49095809570956195B7
:101DEE007F4F8F4F9F4F9923A9F0F92F96E9BB276D
:101DFE009395F695879577956795B795F111F8CFE9
:101E0E00FAF4BB0F11F460FF1BC06F5F7F4F8F4F53
:101E1E009F4F16C0882311F096E911C0772321F049
:101E2E009EE8872F762F05C0662371F096E8862FE1
:101E3E0070E060E02AF09A95660F771F881FDAF738
:0A1E4E00880F9695879597F908957F
:101E5800EF92FF920F931F93CF93DF93C82F7B01CD
:101E6800D42F0E94DE1182ED0E94AE118C2F0E94A9
:101E7800AE1185E38A95F1F700000E94DE1183ED2B
:101E88000E94AE11C0E013C02C2F30E08701020F72
:101E9800131F8D2F90E001972817390719F40E9416
:101EA800C21102C00E94B811F8018083CF5FCD171C
:101EB80058F30E942812DF91CF911F910F91FF9044
:041EC800EF900895FA
:101ECC00CF930E94DE1182ED0E94AE1180E00E9441
:101EDC00AE110E94DE1183ED0E94AE110E94C21160
:101EEC00C82F0E942812C13D19F52FEF81EE94E006
:101EFC00215080409040E1F700C0000061E18EE786
:101F0C000E9417112FEF80E792E021508040904003
:101F1C00E1F700C0000065E18EE70E9417112FEF7A
:101F2C0080E792E0215080409040E1F700C0000033
:041F3C00CF910895A4
:101F40006F927F928F92CF92DF92EF920F931F93B7
:101F5000CF93DF938C016A01E62EE9013A01862EC8
:101F6000620E731E811C37FD8A94C614D704E804E0
:101F700079F0F6018491E7FC8081B801082E000C0D
:101F8000990B0E94DC0D8FEFC81AD80AE80AEDCF32
:101F9000CE01DF91CF911F910F91EF90DF90CF9005
:081FA0008F907F906F9008956F
:101FA8000E942F1088F09F5798F0B92F9927B751A2
:101FB800B0F0E1F0660F771F881F991F1AF0BA95E5
:101FC800C9F714C0B13091F00E940312B1E008952E
:101FD8000C940312672F782F8827B85F39F0B93F20
:101FE800CCF3869577956795B395D9F73EF4909598
:0E1FF8008095709561957F4F8F4F9F4F089594
:10200600990F0008550FAA0BE0E8FEEF1616170603
:10201600E807F907C0F012161306E407F50798F06B
:10202600621B730B840B950B39F40A2661F0232B84
:10203600242B252B21F408950A2609F4A140A69500
:082046008FEF811D811D08953B
:10204E0057FD9058440F551F59F05F3F71F047955B
:10205E00880F97FB991F61F09F3F79F08795089540
:10206E00121613061406551FF2CF4695F1DF08C05F
:10207E00161617061806991FF1CF8695710561057C
:04208E000894089515
:10209200FA0160387105CCF0623871051CF06338C2
:1020A200710599F4A081B1819D012C5F3F4F31836D
:1020B20020834D915D916D917C91FC014083518310
:1020C2006283738381E090E0089580E090E0089558
:1020D20097FB10F8169400080F93083098F00850F8
:1020E200232F342F452F562F672F782F892F902D8E
:1020F200F4CF05949795879577956795579547956A
:0C210200379527950A95AAF70F910895CC
:10210E002F923F924F925F926F927F928F929F92F9
:10211E00AF92BF92CF92DF92EF92FF920F931F93E7
:10212E00CF93DF93CDB7DEB7CA1BDB0B0FB6F89498
:08213E00DEBF0FBECDBF099406
:102146002A88398848885F846E847D848C849B8441
:10215600AA84B984C884DF80EE80FD800C811B814F
:10216600AA81B981CE0FD11D0FB6F894DEBF0FBE7E
:06217600CDBFED0108954C
:10217C00A2E0B0E0E4ECF0E10C9495108C013A8311
:10218C0029839E012F5F3F4F0E94BB00F8012081E5
:10219C0024FF02C08FEF9FEF2296E4E00C94B11065
:1021AC00CF92DF92EF926B01E82E06C00E94EE11E7
:1021BC008FEFC81AD80AE80AF6018491E7FC8081EF
:0C21CC008111F4CFEF90DF90CF900895C8
:1021D800CF92DF92EF926B01E82EA82FCB01FC0182
:1021E8002491A7FD2081222319F00196A11DF7CF84
:0C21F8008C199D09EF90DF90CF900895A6
:10220400A0E0B0E0E8E0F1E10C9495108E01025FEB
:102214001F4F2B853C854D8569857A858F819885EF
:0A2224000E943B0DE4E00C94B110A1
:10222E00CF93DF93D82FC62F0E94DE1182ED0E942E
:10223E00AE118D2F0E94AE118C2F0E94AE110E94F6
:08224E002812DF91CF910895E1
:1022560097FB072E16F4009407D077FD09D00E944D
:102266003F1107FC05D03EF4909581959F4F089548
:08227600709561957F4F0895FA
:10227E00AA1BBB1B51E107C0AA1FBB1FA617B7079E
:10228E0010F0A61BB70B881F991F5A95A9F78095BA
:08229E009095BC01CD010895EB
:1022A600092E0394000C11F4882352F0BB0F40F45E
:1022B600BF2B11F460FF04C06F5F7F4F8F4F9F4F9E
:0222C600089579
:1022C8009A01462FDC01F901549147FD50815D9335
:0C22D8002F5F3F4F4F4F5111F6CF08957C
:1022E400992777FD05C005900D920197E1F70895B0
:0A22F40001900D920197E1F70895A3
:1022FE001092C50087E68093C40086E08093C200EA
:08230E0088E08093C1000895EE
:102316000024A7FD00942A173005400550056005E6
:08232600700580059005089583
:10232E000024A7FD00942A0F301D401D501D601D76
:08233E00701D801D901D089523
:10234600EC010E9445120E944412CE010E944612E0
:06235600CE010E944212BC
:10235C008093BB0084E88093BC008091BC008823F0
:04236C00E4F70895F5
:1023700084EC8093BC008091BC008823E4F78091BA
:04238000BB00089501
:1023840084E88093BC008091BC008823E4F78091AA
:04239400BB000895ED
:102398001092B90088E48093B80084E08093BC0070
:0223A800089596
:1023AA00FC01480F591FE417F50711F06193FBCFA1
:0223BA00089584
:1023BC0084EA8093BC008091BC008823E4F70895E4
:1023CC009C01215431092A31310508F480620895A9
:0E23DC009091C00095FFFCCF8093C60008953D
:0E23EA0000240A941616170618060906089510
:0E23F80000240A941216130614060506089512
:0E240600E894BB2766277727CB0197F9089546
:0E2414005058BB27AA270E94D40C0C945311D9
:0E2422000E94D40F6894B1110C940412089516
:0C24300097F99F6780E870E060E0089575
:0A243C000E94031008F481E00895E7
:0A2446000E94031008F48FEF0895C0
:0824500084E98093BC000895AB
:082458000E948F0B0C9453113C
:082460000E946A0C0C94531158
:062468009FEF80EC0895D7
:06246E0080E090E00895FB
:0624740080E090E00895F5
:06247A0080E090E00895EF
:042480000C940000B8
:042484000E9485002D
:022488000895B5
:02248A000895B3
:02248C000895B1
:00000001FF
