:100000000C945A000C949F000C949F000C949F0039
:100010000C949F000C949F000C949F000C949F00E4
:100020000C949F000C949F000C949F000C949F00D4
:100030000C949F000C949F000C949F000C949F00C4
:100040000C949F000C949F000C949F000C949F00B4
:100050000C949F000C949F000C949F000C949F00A4
:100060000C949F000C949F000C949F000C949F0094
:100070000C949F000C949F000C949F000C949F0084
:100080000C949F000C949F000C949F000C949F0074
:100090000C949F000C949F000C949F000C949F0064
:1000A0000C949F000C949F000C949F000C949F0054
:1000B0000C949F0011241FBECFEFD8E0DEBFCDBF50
:0C00C0000E9466000C949400F894FFCF9E
:1000CC0084B1806284B985B1806285B920E030E06A
:1000DC000BC086E086BD85B3816085BB82E085BDA3
:1000EC00A89BFECF2F5F3F4F203E8EE2380788F350
:1000FC0085B18F7D85B920E030E00BC086E086BDF0
:10010C0085B3816085BB82E085BDA89BFECF2F5F48
:0C011C003F4F203E8EE2380788F3D5CF1D
:10012800EC010E94A4000E94A300CE010E94A50039
:06013800CE010E94A100AF
:04013E000C9400001D
:040142000E946400B3
:0201460008951A
:02014800089518
:02014A00089516
:00000001FF
