:100000000C945A000C9466000C94C7000C94C70022
:100010000C94C7000C94C7000C94C7000C94C70044
:100020000C94C7000C94C7000C94C7000C94C70034
:100030000C94C7000C94C7000C94C7000C94C70024
:100040000C94C7000C94C7000C94C7000C94C70014
:100050000C94C7000C94C7000C94C7000C94C70004
:100060000C94C7000C94C7000C94C7000C94C700F4
:100070000C94C7000C94C7000C94C7000C94C700E4
:100080000C94C7000C94C7000C94C7000C94C700D4
:100090000C94C7000C94C7000C94C7000C94C700C4
:1000A0000C94C7000C94C7000C94C7000C94C700B4
:1000B0000C94C70011241FBECFEFD8E0DEBFCDBF28
:0C00C0000E949D000C94B200F894FFCF49
:1000CC001F920F920FB60F9211242F933F934F93C1
:1000DC005F936F937F938F939F93AF93BF93CF93C4
:1000EC00DF93EF93FF9395B180E2892785B9C0E048
:1000FC00D0E003C00E94BD002196C431D105D4F3D9
:10010C0095B180E2892785B9FF91EF91DF91CF916D
:10011C00BF91AF919F918F917F916F915F914F9113
:0E012C003F912F910F900FBE0F901F901895CE
:10013A0084B1806284B985B1806285B98AB11AB8FE
:10014A008BB184608BB9E9E6F0E0808183608083BB
:0A015A008DB381608DBB7894FFCF58
:10016400EC010E94CC000E94CB00CE010E94CD0085
:06017400CE010E94C9004B
:10017A002FEF82E597E0215080409040E1F700C0E0
:04018A0000000895D4
:04018E000C940000CD
:040192000E94640063
:020196000895CA
:020198000895C8
:02019A000895C6
:00000001FF
